:020000040801F1
:1000000000000220951B0108691901086F190108F9
:10001000751901087B190108811901080000000009
:10002000000000000000000000000000F19E010838
:10003000871901080000000041A10108A9A10108D9
:10004000E51B0108E51B0108E51B0108E51B01088C
:10005000E51B0108E51B0108E51B0108E51B01087C
:10006000E51B0108E51B0108E51B0108E51B01086C
:1000700095190108E51B0108A9190108E51B0108EC
:10008000E51B0108E51B0108E51B0108E51B01084C
:10009000E51B0108E51B0108E51B0108E51B01083C
:1000A000E51B0108BD190108E51B0108E51B010856
:1000B000E51B0108E51B0108E51B0108E51B01081C
:1000C000E51B0108E51B0108E51B0108E51B01080C
:1000D000E51B0108E51B0108E51B0108D119010812
:1000E000E51B0108E51B0108E51B0108E51B0108EC
:1000F000E51B0108E51B0108E51B0108E51B0108DC
:10010000E51B0108E51B0108E51B0108E51B0108CB
:10011000E51B0108E51B0108E51B0108E51B0108BB
:10012000E51B0108E5190108E51B0108E51B0108AD
:10013000E51B0108E51B0108E51B0108E51B01089B
:10014000E51B0108E51B0108E51B0108E51B01088B
:10015000E51B0108F9190108E51B01080D1A010842
:10016000E51B0108E51B0108E51B0108E51B01086B
:10017000E51B0108E51B0108E51B01080000000064
:08018000E51B0108E51B010865
:1001900010B5054C237833B9044B13B10448AFF3C1
:1001A00000800123237010BDD80000200000000053
:1001B000CCA1020808B5034B1BB103490348AFF3B8
:1001C000008008BD00000000DC000020CCA1020877
:1001D000034613F8012B002AFBD1181A0138704787
:1001E00001F0FF01102A2BDB10F0070F08D010F8E8
:1001F000013B013A8B422DD010F0070F42B3F6D1EC
:10020000F0B441EA012141EA014122F007047FF004
:1002100000070023F0E80256083C85EA010586EA5B
:10022000010685FA47F5A3FA87F586FA47F6A5FA97
:1002300087F68EB9EED1F0BC01F0FF0102F00702A3
:1002400032B110F8013B013A83EA010313B1F8D14E
:100250000020704701387047002D06BF354603382F
:10026000073815F0010F07D1013015F4807F02BF68
:10027000013015F4C03F0130F0BC0138704700BFB9
:1002800053B94AB9002908BF00281CBF4FF0FF31FD
:100290004FF0FF3000F06EB9ADF1080C6DE904CEFF
:1002A00000F006F8DDF804E0DDE9022304B0704751
:1002B0002DE9F047089D04468C46002B40F08380D2
:1002C0008A42174647D9B2FA82F242B1C2F12000FF
:1002D00024FA00F09140974040EA010C94404FEA24
:1002E0001748230CBCFBF8F61FFA87FE08FB16C163
:1002F00043EA014306FB0EF1994209D9FB1806F1C6
:10030000FF3080F01981994240F21681023E3B4451
:100310005B1AA4B2B3FBF8F008FB103344EA0344C1
:1003200000FB0EFEA64509D93C1900F1FF3380F011
:100330000581A64540F2028102383C4440EA06406D
:10034000A4EB0E0400261DB1D4400023C5E90043F0
:100350003146BDE8F08702B9FFDEB2FA82F2002A28
:1003600050D1CB1B4FEA174E1FFA87F80126B3FB7B
:10037000FEFC210C0EFB1C3341EA034108FB0CF38D
:100380008B4207D979180CF1FF3002D28B4200F270
:10039000E9808446C91AA3B2B1FBFEF00EFB10112E
:1003A00043EA014408FB00F8A04507D93C1900F1D5
:1003B000FF3302D2A04500F2D9801846A4EB08040E
:1003C00040EA0C40BFE78B4209D9002D00F0B18014
:1003D0000026C5E9000130463146BDE8F087B3FA92
:1003E00083F6002E4AD18B4202D3824200F2B880BB
:1003F000841A61EB030101208C46002DA8D0C5E9C9
:10040000004CA5E7C2F1200320FA03F6974001FA59
:1004100002F04FEA174ED9403043030CB1FBFEF611
:100420001FFA87F80EFB161143EA014306FB08F199
:10043000994204FA02F409D9FB1806F1FF3C80F056
:100440008D80994240F28A80023E3B445B1A81B221
:10045000B3FBFEF00EFB103341EA034100FB08F34F
:100460008B4207D9791800F1FF3C73D28B4271D9C6
:1004700002383944CB1A40EA064678E7C6F1200C28
:1004800003FA06F422FA0CF31C4320FA0CF701FAE3
:1004900006F34FEA144E21FA0CF11F433B0CB1FB5B
:1004A000FEF91FFA84F80EFB191143EA014109FB1A
:1004B00008FA8A4502FA06F200FA06F308D961182A
:1004C00009F1FF3048D28A4546D9A9F102092144F1
:1004D000A1EB0A01BFB2B1FBFEF00EFB101147EA1F
:1004E000014700FB08F8B84507D9E71900F1FF31CB
:1004F0002ED2B8452CD90238274440EA0940A7EB50
:100500000807A0FB02894F45C64649461AD317D0B3
:100510005DB1B3EB0E0267EB010707FA0CFCF2408A
:100520004CEA0202F740C5E9002700263146BDE843
:10053000F0872E4628460BE70646E9E61846FDE614
:100540004345E5D2B8EB020E69EB04010138DFE761
:100550000846D2E760468DE78146B9E7664675E70B
:1005600030464AE7ACF1020C394413E702383C4408
:1005700024E700BF704700BF80B485B000AFF860CB
:10058000B9607A60FB68074A1A60BB68064A1A605D
:100590007B6880221A6000BF1437BD465DF8047B7B
:1005A000704700BFF4000020A801002080B485B08F
:1005B00000AFF860B9607A60FB68074A1A60BB68F0
:1005C000064A1A607B684FF480721A6000BF1437C5
:1005D000BD465DF8047B7047A80300205C04002042
:1005E00080B400AFBFF34F8F00BF064BDB6803F44E
:1005F000E0620449044B1343CB60BFF34F8F00BF4D
:1006000000BFFDE700ED00E00400FA0580B582B010
:1006100000AF78607B681B68104A934204D1104B8E
:100620001B68184606F04EFC7B681B680D4A934217
:100630000FD10D4B1B68184606F044FC00224FF406
:1006400080610A4802F0C6FD01220949094805F007
:10065000F7F800BF0837BD4680BD00BF0048004026
:10066000B89C002000140140509A0020001802405D
:1006700030970020709C002080B582B000AF786079
:100680007B681B68214A934219D1214B1B785A1C65
:10069000D1B21F4A11701A461E4B19781E4B99543D
:1006A0001E4B1B681B4A127811464FF4FA6218461B
:1006B00006F066FC01221749194805F0C1F87B686D
:1006C0001B68184A93421CD1174B1B7803F07F0319
:1006D000DAB2154B1A70154B1B785A1CD1B2134A5B
:1006E00011701A46104B1978114B995400224FF48F
:1006F0008061104802F06EFD01220B490E4805F0A2
:100700009FF800BF0837BD4680BD00BF00480040CD
:100710005C080020709A0020709B002094820020CA
:100720003882002000140140309700205D0800202E
:10073000E498002000180240709C0020B0B5F6B08C
:1007400000AF01F051FA00F013FA00F067FC00F07E
:100750001FFC00F09FFB00F0C7FB00F0EFFB00F078
:1007600075FA00F003FB00F01BFB00F05DFB14F0DA
:1007700017FF322001F07AFA14F01EFFCF4B1B6FE7
:100780000023C7F8D0310023C7F8D43107F5E87348
:10079000184606F06DFA0346C94A13600023C7F8ED
:1007A000C8310023C7F8CC3107F5E473184606F0CA
:1007B0005FFA0346C34A13600023C7F8C031002321
:1007C000C7F8C43107F5E0730121184606F0ECFACA
:1007D0000346BD4A13600023C7F8B8310023C7F8A9
:1007E000BC3107F5DC730121184606F0DDFA03463B
:1007F000B64A13600023C7F8B0310023C7F8B431FC
:1008000007F5D8730121184606F0CEFA0346B04A20
:1008100013600023C7F8A8310023C7F8AC3107F5EF
:10082000D4730121184606F0BFFA0346A94A1360A3
:100830000023C7F8A0310023C7F8A43107F5D0730F
:100840000121184606F0B0FA0346A34A1360A34BF1
:10085000C7F898310023C7F89C3107F5CC73002204
:100860000021184606F050F903469D4A13609D4B3F
:10087000C7F890310023C7F8943107F5C8730022F8
:100880000021184606F040F90346974A1360974B3B
:1008900007F5C0740FCB84E80F0007F5C073002183
:1008A000184606F045FB0346914A13608F4B07F547
:1008B000B8740FCB84E80F0007F5B8730021184611
:1008C00006F036FB03468B4A13608B4B07F5AA7480
:1008D0001D460FCD0FC495E8070084E8070007F513
:1008E000AA730021184606F0AEF80346834A136047
:1008F000834B07F59C741D460FCD0FC495E8070088
:1009000084E8070007F59C730021184606F09BF861
:1009100003467C4A13607C4B07F58E741D460FCD51
:100920000FC495E8070084E8070007F58E730021DF
:10093000184606F088F80346744A1360744B07F5AE
:1009400080741D460FCD0FC495E8070084E80700AA
:1009500007F580730021184606F075F803466D4AC6
:1009600013606D4B07F1E4041D460FCD0FC495E8ED
:10097000070084E8070007F1E4030021184606F0A9
:1009800062F80346654A136007F1C803644A1C46CF
:1009900015460FCD0FC495E8070084E8070007F15E
:1009A000C8030021184606F04EF803465D4A13605E
:1009B00007F1AC035C4A1C4615460FCD0FC495E801
:1009C000070084E8070007F1AC030021184606F091
:1009D0003AF80346554A136007F19003544A1C46FF
:1009E00015460FCD0FC495E8070084E8070007F10E
:1009F00090030021184606F026F803464D4A13607E
:100A000007F174034C4A1C4615460FCD0FC495E8F8
:100A1000070084E8070007F174030021184606F078
:100A200012F80346454A136007F15803444A1C462E
:100A300015460FCD0FC495E8070084E8070007F1BD
:100A400058030021184605F0FEFF03463D4A136097
:100A500007F13C033C4A1C4615460FCD0FC495E8F0
:100A6000070084E8070007F13C030021184605F061
:100A7000EAFF0346354A136007F12003344A1C4657
:100A800015460FCD0FC495E8070084E8070007F16D
:100A900020030021184605F0D6FF03462D4A1360B7
:100AA0003B1D2D4A1C4615460FCD0FC495E8070087
:100AB00084E807003B1D002118464FE00038024043
:100AC000A09600206C9A0020B89C0020D49C0020A6
:100AD000509A0020289A0020B49C00204513010859
:100AE0009896002065130108A496002098A2020899
:100AF0009482002084820020A8A20208188100208D
:100B0000C4A2020814810020E0A20208BC9C0020BC
:100B1000FCA20208E098002018A30208DC9800203C
:100B200034A302081897002050A302081097002051
:100B30006CA302087C82002088A30208D8980020B9
:100B4000A4A3020814970020C0A3020880820020FA
:100B5000DCA302089C960020F8A3020805F073FFAE
:100B60000346024A136005F067FFFEE7D4810020C8
:100B700080B594B000AF07F1200330220021184661
:100B800018F075FB07F10C0300221A605A609A6096
:100B9000DA601A610023BB602A4B1B6C294A43F0C0
:100BA00080531364274B1B6C03F08053BB60BB68FE
:100BB00000237B60244B1B68234A43F4804313606B
:100BC000214B1B6803F480437B607B680D233B62F1
:100BD0004FF480337B620123BB6201237B630223DA
:100BE000BB634FF48003FB6319233B644FF4A8738A
:100BF0007B640223BB640423FB6407F120031846D3
:100C000002F06EFB0346002B01D000F0DDFB0F234A
:100C1000FB6002233B6100237B614FF4A053BB6167
:100C20004FF48053FB6107F10C030521184602F0D5
:100C3000CFFD0346002B01D000F0C6FB00BF5037AC
:100C4000BD4680BD003802400070004080B58CB0C9
:100C500000AF07F1200300221A605A609A60DA6040
:100C60003B4620220021184618F001FB3B4B3C4A32
:100C70001A603A4B4FF480325A60384B00229A6027
:100C8000364B01221A61354B00221A76334B002273
:100C900083F82020314B0022DA62304B314A9A62CD
:100CA0002E4B0022DA602D4B0122DA612B4B002201
:100CB00083F83020294B01225A61284800F0FAFFBE
:100CC0000346002B01D000F07FFB0A233B62012387
:100CD0007B620023BB6207F1200319461F4801F025
:100CE0002DF80346002B01D000F06EFB0A233B6079
:100CF00001237B6003233B610023BB600023FB6176
:100D0000194BBB6100237B7500233B750023FB60FF
:100D10003B461946114801F02FFA0346002B01D03B
:100D200000F052FB02237B603B4619460B4801F062
:100D300023FA0346002B01D000F046FB03237B601F
:100D40003B461946054801F017FA0346002B01D02F
:100D500000F03AFB00BF3037BD4680BD90980020C0
:100D6000002001400100000F01000F0080B500AF1E
:100D7000094B0A4A1A60084B03225A60064B4FF48B
:100D80007A629A60044802F058FA0346002B01D0B8
:100D900000F01AFB00BF80BD8882002000300040B8
:100DA00080B586B000AF3B1D00221A605A609A6081
:100DB000DA601A6100233B60194B1A4A1A60184B1B
:100DC00000225A60164B7F229A60154BFF22DA6090
:100DD000134B00221A61124B00225A61104B002261
:100DE0009A610F4802F0D8FF0346002B01D000F0B3
:100DF000EBFA17233B7147237B710023BB71002360
:100E00003B6100237B6106233B7011237B7005232C
:100E1000BB702223FB7000BF1837BD4680BD00BFEA
:100E2000309A00200028004080B500AF174B184AC8
:100E30001A60164B4FF482725A60144B00229A606B
:100E4000124B0022DA60114B00221A610F4B002274
:100E50005A610E4B4FF400729A610C4B2022DA61FA
:100E60000A4B00221A62094B00225A62074B0022E9
:100E70009A62064B0A22DA62044803F08BFA0346B0
:100E8000002B01D000F0A0FA00BF80BD7C810020C3
:100E90000038004080B500AF114B124A1A60104B69
:100EA0004FF416525A600E4B00229A600C4B0022EF
:100EB000DA600B4B00221A61094B0C225A61084B75
:100EC00000229A61064B0022DA61054804F0B8FA64
:100ED0000346002B01D000F077FA00BF80BD00BFB1
:100EE000E49900200010014080B500AF114B124A78
:100EF0001A60104B4FF416525A600E4B00229A6043
:100F00000C4B0022DA600B4B00221A61094B0C22B9
:100F10005A61084B00229A61064B0022DA610548AB
:100F200004F08EFA0346002B01D000F04DFA00BF0A
:100F300080BD00BF388200200048004080B500AF6F
:100F4000114B124A1A60104B4FF416525A600E4B56
:100F500000229A600C4B0022DA600B4B4FF4806247
:100F60001A61094B0C225A61074B00229A61064B09
:100F70000022DA61044804F063FA0346002B01D032
:100F800000F022FA00BF80BD709C002000140140D8
:100F900080B582B000AF00237B601F4B1B6B1E4AE5
:100FA00043F4001313631C4B1B6B03F400137B60AF
:100FB0007B6800233B60184B1B6B174A43F480038C
:100FC0001363154B1B6B03F480033B603B680022EB
:100FD00005210C2001F01EFB0C2001F037FB002244
:100FE00005210E2001F016FB0E2001F02FFB002240
:100FF0000521392001F00EFB392001F027FB0022EA
:101000000521452001F006FB452001F01FFB00BF34
:101010000837BD4680BD00BF0038024080B58EB0A5
:1010200000AF07F1240300221A605A609A60DA6068
:101030001A6100233B62B34B1B6BB24A43F01003AF
:101040001363B04B1B6B03F010033B623B6A00233E
:10105000FB61AC4B1B6BAB4A43F480731363A94B2E
:101060001B6B03F48073FB61FB690023BB61A54B21
:101070001B6BA44A43F004031363A24B1B6B03F0E6
:101080000403BB61BB6900237B619E4B1B6B9D4AC4
:1010900043F0200313639B4B1B6B03F020037B6126
:1010A0007B6900233B61974B1B6B964A43F080039F
:1010B0001363944B1B6B03F080033B613B6900237C
:1010C000FB60904B1B6B8F4A43F0010313638D4B06
:1010D0001B6B03F00103FB60FB680023BB60894BC3
:1010E0001B6B884A43F002031363864B1B6B03F0B0
:1010F0000203BB60BB6800237B60824B1B6B814A91
:1011000043F0400313637F4B1B6B03F040037B6092
:101110007B6800233B607B4B1B6B7A4A43F00803E0
:101120001363784B1B6B03F008033B603B680022A2
:101130004021754802F04EF800224FF48071734848
:1011400002F048F800224FF40051714802F042F8D2
:1011500001224FF440616D4802F03CF80122382131
:101160006C4802F037F8012201216B4802F032F896
:10117000012248F20C01694802F02CF8002260219B
:10118000664802F027F800222821634802F022F87E
:1011900000224FF4C051624802F01CF800224FF4C4
:1011A0008061604802F016F840237B620123BB6235
:1011B0000023FB6200233B6307F1240319465248D6
:1011C00001F054FE4FF450637B620123BB620023A5
:1011D000FB6200233B6307F1240319464B4801F0EF
:1011E00045FE4FF400537B620123BB620023FB6288
:1011F00000233B6307F124031946454801F036FEFE
:1012000038237B620123BB620023FB6200233B6324
:1012100007F1240319463F4801F028FE29237B6289
:101220000123BB620023FB6200233B6307F124031D
:101230001946394801F01AFE48F26C037B6201231B
:10124000BB620023FB6200233B6307F124031946C2
:10125000324801F00BFE10237B620023BB620023A7
:10126000FB6207F1240319462C4801F0FFFD04231B
:101270007B620023BB620023FB6207F12403194653
:10128000294801F0F3FD4FF478437B620023BB62F1
:101290000023FB6207F1240319461E4801F0E6FD16
:1012A00003237B620023BB620023FB6207F124035C
:1012B00019461C4801F0DAFD4FF4C0537B6201234C
:1012C000BB620223FB6200233B6307F12403194640
:1012D000134801F0CBFD4FF480637B620123BB62B6
:1012E0000223FB6200233B6307F1240319460D48E8
:1012F00001F0BCFD01237B620023BB620123FB6282
:1013000014E000BF003802400010024000200240FC
:10131000000802400014024000000240001C02408D
:10132000000C0240001802400004024007F12403B0
:101330001946034801F09AFD00BF3837BD4680BD0D
:101340000010024080B483B000AF7860044B0022EC
:101350001A7000BF0C37BD465DF8047B704700BFB4
:101360002C9A002080B483B000AF7860044B012237
:101370001A7000BF0C37BD465DF8047B704700BF94
:101380005E08002080B582B000AF7860044801F0AC
:1013900096FF14F041F94FF47A7005F0A0FBF5E7E1
:1013A0008882002080B582B000AF78607B681B68BF
:1013B000044A934201D100F039FC00BF0837BD4612
:1013C00080BD00BF0000014080B500AFFFF708F905
:1013D00080B582B000AF00237B60124B5B6C114A7A
:1013E00043F4804353640F4B5B6C03F480437B6096
:1013F0007B6800233B600B4B1B6C0A4A43F0805315
:101400001364084B1B6C03F080533B603B68002265
:101410000F216FF0010001F0FDF800BF0837BD4655
:1014200080BD00BF0038024080B58AB000AF786050
:1014300007F1140300221A605A609A60DA601A6198
:101440007B681B68174A934227D100233B61164BE8
:101450005B6C154A43F480735364134B5B6C03F469
:1014600080733B613B690023FB600F4B1B6B0E4A93
:1014700043F0040313630C4B1B6B03F00403FB608A
:10148000FB680D237B610323BB610023FB6107F134
:1014900014031946054801F0E9FC00BF2837BD4692
:1014A00080BD00BF0020014000380240000802401B
:1014B00080B586B000AF786007F1080300221A609B
:1014C0005A609A60DA607B681B680C4A934211D1BB
:1014D0000223BB604FF480737B6107F10803184659
:1014E00002F078FB0346002B01D0FFF76DFF044BA1
:1014F00001221A6000BF1837BD4680BD0028004099
:101500003C0E474280B58AB000AF786007F1140303
:1015100000221A605A609A60DA601A617B681B6860
:10152000194A93422BD100233B61184B1B6C174A7D
:1015300043F480431364154B1B6C03F480433B61FD
:101540003B690023FB60114B1B6B104A43F4807313
:1015500013630E4B1B6B03F48073FB60FB680E235D
:101560007B610223BB610023FB6103233B620523F4
:101570007B6207F114031946054801F077FC00BFB0
:101580002837BD4680BD00BF00380040003802400B
:101590000020024080B58EB000AF786007F12403D0
:1015A00000221A605A609A60DA601A617B681B68D0
:1015B000634A93422CD100233B62624B5B6C614ACD
:1015C00043F0100353645F4B5B6C03F010033B620A
:1015D0003B6A0023FB615B4B1B6B5A4A43F00203DF
:1015E0001363584B1B6B03F00203FB61FB69C023C1
:1015F0007B620223BB620023FB6203233B6307235E
:101600007B6307F1240319464F4801F02FFC3EE1AC
:101610007B681B684D4A934240F0A2800023BB6167
:10162000484B1B6C474A43F480231364454B1B6CA7
:1016300003F48023BB61BB6900237B61414B1B6BBF
:10164000404A43F0020313633E4B1B6B03F002035B
:101650007B617B694FF440637B620223BB620023A2
:10166000FB6203233B6307237B6307F124031946D3
:10167000354801F0FBFB364B364A1A60344B4FF0CD
:1016800000625A60324B40229A60314B0022DA608D
:101690002F4B4FF480621A612D4B00225A612C4B64
:1016A00000229A612A4B0022DA61294B00221A6239
:1016B000274B00225A62264800F0D6FF0346002B33
:1016C00001D0FFF781FE7B68214A5A63204A7B687C
:1016D0009363214B214A1A601F4B4FF000625A60FE
:1016E0001D4B00229A601C4B0022DA601A4B4FF40B
:1016F00080621A61184B00225A61174B00229A61CE
:10170000154B0022DA61144B00221A62124B0022A0
:101710005A62114800F0A8FF0346002B01D0FFF7E2
:1017200053FE7B680C4A9A630B4A7B6893630022E2
:101730000521272000F06EFF272000F087FFA6E09C
:101740000010014000380240000402400048004000
:10175000A896002058600240D881002028600240EE
:101760007B681B684C4A934240F0918000233B61A8
:101770004A4B5B6C494A43F020035364474B5B6C14
:1017800003F020033B613B690023FB60434B1B6B71
:10179000424A43F040031363404B1B6B03F040038A
:1017A000FB60FB684FF484437B620223BB6200232F
:1017B000FB6203233B6308237B6307F12403194681
:1017C000374801F053FB374B374A1A60354B4FF01F
:1017D00020625A60334B40229A60324B0022DA601A
:1017E000304B4FF480621A612E4B00225A612D4B10
:1017F00000229A612B4B0022DA612A4B00221A62E6
:10180000284B00225A62274800F02EFF0346002B87
:1018100001D0FFF7D9FD7B68224A5A63214A7B68D1
:101820009363224B224A1A60204B4FF020625A6089
:101830001E4B00229A601D4B0022DA601B4B4FF4B6
:1018400080621A61194B00225A61184B00229A617A
:10185000164B0022DA61154B00221A62134B00224C
:101860005A62124800F000FF0346002B01D0FFF738
:10187000ABFD7B680D4A9A630C4A7B689363002238
:101880000521472000F0C6FE472000F0DFFE00BF24
:101890003837BD4680BD00BF00140140003802400B
:1018A0000018024030980020A06402401C810020F3
:1018B0002864024080B58CB000AF78600023FB62E2
:1018C0000023BB6200227968192000F0A3FE1920D2
:1018D00000F0BCFE0023FB601F4B5B6C1E4A43F014
:1018E000010353641C4B5B6C03F00103FB60FB685A
:1018F00007F1100207F114031146184602F038F9F7
:1019000002F022F903465B00FB62FB6A134AA2FB6A
:1019100003239B0C013BBB62114B124A1A60104B14
:1019200040F2E732DA600E4ABB6A53600C4B002289
:101930001A610B4B00229A60094803F0D3FA034660
:10194000002B04D1064803F027FB034600E00123E7
:1019500018463037BD4680BD0038024083DE1B4349
:10196000D89C00200000014080B400AFFEE780B4A6
:1019700000AFFEE780B400AFFEE780B400AFFEE743
:1019800080B400AFFEE780B400AF00BFBD465DF895
:10199000047B704780B500AF024800F0FDFF00BF38
:1019A00080BD00BFD881002080B500AF024800F0A4
:1019B000F3FF00BF80BD00BFA896002080B500AF38
:1019C000024803F059FB00BF80BD00BFD89C002037
:1019D00080B500AF024803F063FF00BF80BD00BFC9
:1019E0003882002080B500AF024800F0D5FF00BF6C
:1019F00080BD00BF1C81002080B500AF024800F010
:101A0000CBFF00BF80BD00BF3098002080B500AF85
:101A1000024803F045FF00BF80BD00BF709C00205E
:101A200080B586B000AFF860B9607A6000237B6152
:101A30000AE0AFF300800146BB685A1CBA60CAB224
:101A40001A707B6901337B617A697B689A42F0DBAB
:101A50007B6818461837BD4680BD80B586B000AF9C
:101A6000F860B9607A6000237B6109E0BB685A1CAA
:101A7000BA601B781846AFF300807B6901337B6145
:101A80007A697B689A42F1DB7B6818461837BD4655
:101A900080BD80B483B000AF78604FF0FF3318464C
:101AA0000C37BD465DF8047B704780B483B000AF4F
:101AB000786039603B684FF400525A600023184642
:101AC0000C37BD465DF8047B704780B483B000AF2F
:101AD0007860012318460C37BD465DF8047B7047DB
:101AE00080B485B000AFF860B9607A600023184612
:101AF0001437BD465DF8047B7047000080B586B0A2
:101B000000AF7860144A154BD31A7B617B693B6147
:101B1000134B1B68002B02D1114B124A1A60104B59
:101B20001A687B6813443A699A4207D217F06EFA32
:101B300003460C221A604FF0FF3309E0084B1B6884
:101B4000FB60074B1A687B681344054A1360FB6807
:101B500018461837BD4680BD000002200004000072
:101B60006008002040A2002080B400AF074BD3F8EB
:101B70008830064A43F47003C2F88830034B044AA5
:101B80009A6000BFBD465DF8047B704700ED00E041
:101B900000000108DFF834D00D480E490E4A00233A
:101BA00002E0D458C4500433C4188C42F9D30B4A11
:101BB0000B4C002301E013600432A242FBD3FFF779
:101BC000D3FF17F01FFBFEF7B9FD7047000002209E
:101BD00000000020D40000205CA90208D8000020EA
:101BE0003CA20020FEE7000080B500AF0E4B1B6852
:101BF0000D4A43F4007313600B4B1B680A4A43F40D
:101C000080631360084B1B68074A43F480731360BA
:101C1000032000F0F4FC0F20FFF74CFEFFF7D8FB89
:101C20000023184680BD00BF003C024080B400AFD6
:101C3000064B1B781A46064B1B681344044A136074
:101C400000BFBD465DF8047B704700BF0800002060
:101C5000209D002080B400AF034B1B681846BD4692
:101C60005DF8047B704700BF209D002080B584B0E4
:101C700000AF7860FFF7EEFFB8607B68FB60FB6841
:101C8000B3F1FF3F05D00A4B1B781A46FB6813449B
:101C9000FB6000BFFFF7DEFF0246BB68D31AFA689D
:101CA0009A42F7D800BF00BF1037BD4680BD00BFC5
:101CB0000800002080B584B000AF78600023FB737B
:101CC0007B68002B01D1012333E07B681B6C002B68
:101CD00009D17868FFF7A8FB7B6800225A647B680B
:101CE000002283F83C207B681B6C03F01003002B60
:101CF00018D17B681B6C23F4885323F0020343F054
:101D000002027B681A64786800F03AF97B68002266
:101D10005A647B681B6C23F0030343F001027B6869
:101D20001A6401E00123FB737B68002283F83C20E6
:101D3000FB7B18461037BD4680BD000080B485B0DF
:101D400000AF786039600023BB607B6893F83C305B
:101D5000012B01D1022305E17B68012283F83C209D
:101D60003B681B68092B25D97B681B68D9683B68D1
:101D70001B689BB21A4613465B0013441E3B0722A6
:101D800002FA03F3DA437B681B680A40DA607B6877
:101D90001B68D9683B689A683B681B689BB2184609
:101DA00003465B0003441E3B9A407B681B680A4362
:101DB000DA6022E07B681B6819693B681B689BB28C
:101DC0001A4613465B001344072202FA03F3DA4370
:101DD0007B681B680A401A617B681B6819693B684D
:101DE0009A683B681B689BB2184603465B00034435
:101DF0009A407B681B680A431A613B685B68062B44
:101E000024D87B681B68596B3B685A6813469B0053
:101E10001344053B1F2202FA03F3DA437B681B6875
:101E20000A405A637B681B68596B3B681B689BB20E
:101E300018463B685A6813469B001344053B00FA5A
:101E400003F27B681B680A435A634CE03B685B689B
:101E50000C2B24D87B681B68196B3B685A681346A7
:101E60009B001344233B1F2202FA03F3DA437B68EF
:101E70001B680A401A637B681B68196B3B681B6808
:101E80009BB218463B685A6813469B001344233B99
:101E900000FA03F27B681B680A431A6323E07B683D
:101EA0001B68D96A3B685A6813469B001344413B40
:101EB0001F2202FA03F3DA437B681B680A40DA62E6
:101EC0007B681B68D96A3B681B689BB218463B68F5
:101ED0005A6813469B001344413B00FA03F27B68A7
:101EE0001B680A43DA62224BFB607B681B68214A4D
:101EF000934209D13B681B68122B05D1FB685B68D4
:101F000043F48002FB685A607B681B68194A93425D
:101F100023D13B681B68102B03D03B681B68112B37
:101F20001BD1FB685B6843F40002FB685A603B68A6
:101F30001B68102B11D1104B1B68104AA2FB032306
:101F40009A0C13469B0013445B00BB6002E0BB6825
:101F5000013BBB60BB68002BF9D17B68002283F892
:101F60003C20002318461437BD465DF8047B7047BB
:101F700000230140002001400000002083DE1B43BD
:101F800080B485B000AF7860794BFB60FB685B681C
:101F900023F44032FB685A60FB685A687B685B68D0
:101FA0001A43FB685A607B681B685A687B681B6829
:101FB00022F480725A607B681B6859687B681B69D1
:101FC0001A027B681B680A435A607B681B685A6860
:101FD0007B681B6822F040725A607B681B685968F6
:101FE0007B689A687B681B680A435A607B681B6839
:101FF0009A687B681B6822F400629A607B681B68A1
:1020000099687B68DA687B681B680A439A607B681A
:102010009B6A584A934222D07B681B689A687B6807
:102020001B6822F070629A607B681B6899687B6805
:102030009A6A7B681B680A439A607B681B689A6887
:102040007B681B6822F040529A607B681B68996825
:102050007B68DA6A7B681B680A439A600FE07B68DA
:102060001B689A687B681B6822F070629A607B68C4
:102070001B689A687B681B6822F040529A607B68F4
:102080001B689A687B681B6822F002029A607B6872
:102090001B6899687B681B7E5A007B681B680A4333
:1020A0009A607B6893F82030002B1BD07B681B68FC
:1020B0005A687B681B6842F400625A607B681B6840
:1020C0005A687B681B6822F460425A607B681B6810
:1020D00059687B685B6A013B5A037B681B680A434B
:1020E0005A6007E07B681B685A687B681B6822F4AB
:1020F00000625A607B681B68DA6A7B681B6822F49E
:102100007002DA627B681B68D96A7B68DB69013B15
:102110001A057B681B680A43DA627B681B689A6849
:102120007B681B6822F400729A607B681B68996860
:102130007B6893F830305A027B681B680A439A60C8
:102140007B681B689A687B681B6822F480629A60CF
:102150007B681B6899687B685B699A027B681B686F
:102160000A439A6000BF1437BD465DF8047B704790
:10217000002301400100000F80B485B000AF7860FB
:1021800039607B6893F83C30012B01D102237DE15B
:102190007B68012283F83C203B681B68092B25D90A
:1021A0007B681B68D9683B681B689BB21A4613465C
:1021B0005B0013441E3B072202FA03F3DA437B68F9
:1021C0001B680A40DA607B681B68D9683B689A68BC
:1021D0003B681B689BB2184603465B0003441E3BEA
:1021E0009A407B681B680A43DA6022E07B681B68C0
:1021F00019693B681B689BB21A4613465B0013447F
:10220000072202FA03F3DA437B681B680A401A616B
:102210007B681B6819693B689A683B681B689BB2BE
:10222000184603465B0003449A407B681B680A43D8
:102230001A617B681B689A6B7B681B6822F44012EA
:102240009A637B681B68996B3B681B69013B1A05A5
:102250007B681B680A439A637B681B68996B3B68C1
:102260005B68DAB23B681B69DBB2D31ADBB20333BB
:10227000DBB21A4613469B0013441F2202FA03F3F3
:10228000DA437B681B680A409A637B681B68996B1A
:102290003B681B689BB218463B685B68DAB23B68D8
:1022A0001B69DBB2D31ADBB20333DBB21A46134627
:1022B0009B00134400FA03F27B681B680A439A638D
:1022C0003B689B69744A934222D07B681B689A687A
:1022D0007B681B6822F470229A607B681B6899688F
:1022E0003B689A697B681B680A439A607B681B6835
:1022F0009A687B681B6822F440129A607B681B68AE
:1023000099683B68DA697B681B680A439A600FE04A
:102310007B681B689A687B681B6822F470229A604D
:102320007B681B689A687B681B6822F440129A607D
:102330003B685B7D002B08D07B681B685A687B6814
:102340001B6842F480625A6007E07B681B685A6829
:102350007B681B6822F480625A603B681B7D002BFF
:1023600008D07B681B685A687B681B6842F48052FF
:102370005A6007E07B681B685A687B681B6822F418
:1023800080525A603B685B68032B2ED0032B40D8E9
:10239000012B02D0022B14D03BE07B681B685B69E9
:1023A0007A68126823F47F6323F00F0353617B681C
:1023B0001B6859693B68DA687B681B680A435A6185
:1023C0003BE07B681B689B697A68126823F47F6333
:1023D00023F00F0393617B681B6899693B68DA6897
:1023E0007B681B680A439A6127E07B681B68DB698E
:1023F0007A68126823F47F6323F00F03D3617B684C
:102400001B68D9693B68DA687B681B680A43DA6134
:1024100013E07B681B681B6A7A68126823F47F6389
:1024200023F00F0313627B681B68196A3B68DA6844
:102430007B681B680A431A6200BF184BFB607B680D
:102440001B68174A934209D13B681B68122B05D1C0
:10245000FB685B6843F48002FB685A607B681B681A
:102460000F4A93420DD13B681B68102B03D03B6889
:102470001B68112B05D1FB685B6843F40002FB6805
:102480005A607B68002283F83C20002318461437EA
:10249000BD465DF8047B704701000F00002301403A
:1024A0000020014080B485B000AF78607B6803F005
:1024B0000703FB600C4BDB68BB60BA684FF6FF0399
:1024C0001340BB60FB681A02BB68134343F0BF6351
:1024D00043F40033BB60044ABB68D36000BF1437C9
:1024E000BD465DF8047B704700ED00E080B400AFAE
:1024F000044BDB681B0A03F007031846BD465DF872
:10250000047B704700ED00E080B483B000AF034669
:10251000FB7197F90730002B0BDBFB7903F01F02EF
:10252000074997F907305B09012000FA02F241F8E8
:10253000232000BF0C37BD465DF8047B704700BF09
:1025400000E100E080B483B000AF03463960FB7166
:1025500097F90730002B0ADB3B68DAB20C4997F990
:1025600007301201D2B20B4483F800230AE03B6823
:10257000DAB20849FB7903F00F03043B1201D2B22F
:102580000B441A7600BF0C37BD465DF8047B7047DC
:1025900000E100E000ED00E080B489B000AFF86039
:1025A000B9607A60FB6803F00703FB61FB69C3F164
:1025B0000703042B28BF0423BB61FB690433062BEC
:1025C00002D9FB69033B00E000237B614FF0FF323F
:1025D000BB6902FA03F3DA43BB681A407B699A408D
:1025E0004FF0FF317B6901FA03F3D9437B680B405D
:1025F000134318462437BD465DF8047B704780B509
:1026000082B000AF78607868FFF74CFF00BF0837F2
:10261000BD4680BD80B586B000AF0346B9607A6024
:10262000FB7300237B61FFF761FF78617A68B9680B
:102630007869FFF7B1FF024697F90F301146184647
:10264000FFF780FF00BF1837BD4680BD80B582B060
:1026500000AF0346FB7197F907301846FFF754FFA8
:1026600000BF0837BD4680BD80B586B000AF78603A
:1026700000237B61FFF7EEFA38617B68002B01D104
:10268000012399E07B68022283F835207B680022D1
:1026900083F834207B681B681A687B681B6822F00B
:1026A00001021A600FE0FFF7D5FA02463B69D31A20
:1026B000052B08D97B6820225A657B68032283F8A2
:1026C0003520032378E07B681B681B6803F0010357
:1026D000002BE8D17B681B681B687B617A69384BEB
:1026E00013407B617B685A687B689B681A437B68F0
:1026F000DB681A437B681B691A437B685B691A4372
:102700007B689B691A437B68DB691A437B681B6A99
:1027100013437A6913437B617B685B6A042B07D19F
:102720007B68DA6A7B681B6B13437A6913437B61AE
:102730007B681B687A691A607B681B685B697B61D0
:102740007B6923F007037B617B685B6A7A691343CB
:102750007B617B685B6A042B17D17B689B6A7A6913
:1027600013437B617B68DB6A002B0ED0786800F036
:1027700001FB0346002B08D07B6840225A657B682A
:10278000012283F83520012316E07B681B687A69F3
:102790005A61786800F0B8FA0346FB607B68DB6D2D
:1027A0003F229A40FB689A607B6800225A657B68EA
:1027B000012283F83520002318461837BD4680BD16
:1027C0003F8010F080B586B000AFF860B9607A60E5
:1027D0003B600023FB75FB689B6D3B61FB6893F8D6
:1027E0003430012B01D1022340E0FB68012283F841
:1027F0003420FB6893F83530DBB2012B2FD1FB6816
:10280000022283F83520FB6800225A653B687A680B
:10281000B968F86800F04AFAFB68DB6D3F229A401D
:102820003B699A60FB681B681A68FB681B6842F08A
:1028300016021A60FB681B6C002B07D0FB681B6834
:102840001A68FB681B6842F008021A60FB681B6884
:102850001A68FB681B6842F001021A6005E0FB6819
:10286000002283F834200223FB75FB7D18461837BD
:10287000BD4680BD80B584B000AF78607B689B6D3D
:10288000FB60FFF7E7F9B8607B6893F83530DBB29F
:10289000022B08D07B6880225A657B68002283F86F
:1028A0003420012352E07B681B681A687B681B6830
:1028B00022F016021A607B681B685A697B681B68E5
:1028C00022F080025A617B681B6C002B03D17B686D
:1028D0009B6C002B07D07B681B681A687B681B68A1
:1028E00022F008021A607B681B681A687B681B6804
:1028F00022F001021A6013E0FFF7ACF90246BB6850
:10290000D31A052B0CD97B6820225A657B680322D9
:1029100083F835207B68002283F83420032315E0F8
:102920007B681B681B6803F00103002BE4D17B6804
:10293000DB6D3F229A40FB689A607B68012283F836
:1029400035207B68002283F8342000231846103796
:10295000BD4680BD80B483B000AF78607B6893F8DB
:102960003530DBB2022B04D07B6880225A6501230C
:102970000CE07B68052283F835207B681B681A68A9
:102980007B681B6822F001021A60002318460C378E
:10299000BD465DF8047B704780B586B000AF7860B7
:1029A0000023BB60924B1B68924AA2FB03239B0A45
:1029B0007B617B689B6D3B613B691B68FB607B684F
:1029C000DB6D08229A40FB681340002B1AD07B680D
:1029D0001B681B6803F00403002B13D07B681B6883
:1029E0001A687B681B6822F004021A607B68DB6D42
:1029F00008229A403B699A607B685B6D43F0010254
:102A00007B685A657B68DB6D01229A40FB68134046
:102A1000002B12D07B681B685B6903F08003002BDE
:102A20000BD07B68DB6D01229A403B699A607B6822
:102A30005B6D43F002027B685A657B68DB6D0422A4
:102A40009A40FB681340002B12D07B681B681B6800
:102A500003F00203002B0BD07B68DB6D04229A404D
:102A60003B699A607B685B6D43F004027B685A6542
:102A70007B68DB6D10229A40FB681340002B43D02B
:102A80007B681B681B6803F00803002B3CD07B6845
:102A9000DB6D10229A403B699A607B681B681B685B
:102AA00003F48023002B18D07B681B681B6803F499
:102AB0000023002B08D17B681B6C002B24D07B6883
:102AC0001B6C786898471FE07B689B6C002B1BD0C1
:102AD0007B689B6C7868984716E07B681B681B686E
:102AE00003F48073002B07D17B681B681A687B682E
:102AF0001B6822F008021A607B681B6C002B03D055
:102B00007B681B6C786898477B68DB6D20229A4055
:102B1000FB681340002B00F08E807B681B681B68ED
:102B200003F01003002B00F086807B68DB6D202211
:102B30009A403B699A607B6893F83530DBB2052B8D
:102B400036D17B681B681A687B681B6822F0160206
:102B50001A607B681B685A697B681B6822F08002D8
:102B60005A617B681B6C002B03D17B689B6C002B2C
:102B700007D07B681B681A687B681B6822F0080214
:102B80001A607B68DB6D3F229A403B699A607B68E4
:102B9000012283F835207B68002283F834207B688B
:102BA0001B6D002B7DD07B681B6D7868984778E0A3
:102BB0007B681B681B6803F48023002B1CD07B6898
:102BC0001B681B6803F40023002B08D17B685B6C37
:102BD000002B30D07B685B6C786898472BE07B6873
:102BE000DB6B002B27D07B68DB6B7868984722E093
:102BF00000000020B5814E1B7B681B681B6803F436
:102C00008073002B0FD17B681B681A687B681B6878
:102C100022F010021A607B68012283F835207B685D
:102C2000002283F834207B68DB6B002B03D07B68A9
:102C3000DB6B786898477B685B6D002B32D07B68D4
:102C40005B6D03F00103002B22D07B68052283F823
:102C500035207B681B681A687B681B6822F00102BC
:102C60001A60BB680133BB607A699A4207D37B68FC
:102C70001B681B6803F00103002BF2D100E000BFCA
:102C80007B68012283F835207B68002283F834209A
:102C90007B68DB6C002B05D07B68DB6C7868984721
:102CA00000E000BF1837BD4680BD00BF80B485B0CE
:102CB00000AFF860B9607A603B60FB681B681A6817
:102CC000FB681B6822F480221A60FB681B683A6864
:102CD0005A60FB689B68402B08D1FB681B687A68C8
:102CE0009A60FB681B68BA68DA6007E0FB681B68DB
:102CF000BA689A60FB681B687A68DA6000BF1437AC
:102D0000BD465DF8047B704780B485B000AF786045
:102D10007B681B68DBB2103B144AA2FB03231B0930
:102D2000FB60134AFB6813441B781A467B68DA651C
:102D3000FB68032B09D97B681B6823F47F7323F09E
:102D400003031A1D7B689A6507E07B681B6823F400
:102D50007F7323F003037A6893657B689B6D184645
:102D60001437BD465DF8047B704700BFABAAAAAA22
:102D7000ACA6020880B485B000AF78600023FB7376
:102D80007B689B6ABB607B689B69002B1FD1BB681B
:102D9000032B56D801A252F823F000BFAD2D010835
:102DA000BF2D0108AD2D0108432E01087B68DB6AA9
:102DB00003F08073002B46D00123FB7343E07B6854
:102DC000DB6AB3F1C07F40D10123FB733DE07B6838
:102DD0009B69B3F5005F21D1BB68032B37D801A2F3
:102DE00052F823F0F52D0108FB2D0108F52D0108FF
:102DF0000D2E01080123FB7330E07B68DB6A03F0D2
:102E00008073002B25D00123FB7322E07B68DB6AF3
:102E1000B3F1C07F1FD10123FB731CE0BB68022B01
:102E200003D9BB68032B03D018E00123FB7315E023
:102E30007B68DB6A03F08073002B0ED00123FB73E9
:102E40000BE000BF0AE000BF08E000BF06E000BFE3
:102E500004E000BF02E000BF00E000BFFB7B1846BB
:102E60001437BD465DF8047B704700BF80B489B05D
:102E700000AF7860396000237B6100233B61002351
:102E8000BB610023FB616BE10122FB6902FA03F3E2
:102E90007B613B681B687A6913403B613A697B69D7
:102EA0009A4240F05A813B685B6803F00303012BB0
:102EB00005D03B685B6803F00303022B30D17B68CD
:102EC0009B68BB61FB695B00032202FA03F3DB43EF
:102ED000BA691340BB613B68DA68FB695B0002FAC0
:102EE00003F3BA691343BB617B68BA699A607B6874
:102EF0005B68BB610122FB6902FA03F3DB43BA6939
:102F00001340BB613B685B681B0903F00102FB696E
:102F100002FA03F3BA691343BB617B68BA695A606A
:102F20003B685B6803F00303032B17D07B68DB6807
:102F3000BB61FB695B00032202FA03F3DB43BA695E
:102F40001340BB613B689A68FB695B0002FA03F3BC
:102F5000BA691343BB617B68BA69DA603B685B6836
:102F600003F00303022B23D1FB69DA087B680832E4
:102F700053F82230BB61FB6903F007039B000F226B
:102F800002FA03F3DB43BA691340BB613B681A6979
:102F9000FB6903F007039B0002FA03F3BA691343CA
:102FA000BB61FB69DA087B680832B96943F8221013
:102FB0007B681B68BB61FB695B00032202FA03F3B9
:102FC000DB43BA691340BB613B685B6803F00302F3
:102FD000FB695B0002FA03F3BA691343BB617B68C8
:102FE000BA691A603B685B6803F44033002B00F059
:102FF000B4800023FB60604B5B6C5F4A43F480430A
:1030000053645D4B5B6C03F48043FB60FB685B4A7D
:10301000FB699B08023352F82330BB61FB6903F064
:1030200003039B000F2202FA03F3DB43BA69134048
:10303000BB617B68524A93422BD07B68514A9342D2
:1030400025D07B68504A93421FD07B684F4A9342F9
:1030500019D07B684E4A934213D07B684D4A934205
:103060000DD07B684C4A934207D07B684B4A934211
:1030700001D107230EE008230CE006230AE0052314
:1030800008E0042306E0032304E0022302E0012316
:1030900000E00023FA6902F0030292009340BA694B
:1030A0001343BB613549FB699B080233BA6941F898
:1030B00023203B4B9B68BB613B69DB43BA691340F0
:1030C000BB613B685B6803F48013002B03D0BA69D3
:1030D0003B691343BB61324ABB699360304BDB6889
:1030E000BB613B69DB43BA691340BB613B685B680A
:1030F00003F40013002B03D0BA693B691343BB618F
:10310000274ABB69D360264B5B68BB613B69DB43E5
:10311000BA691340BB613B685B6803F40033002B62
:1031200003D0BA693B691343BB611D4ABB69536055
:103130001B4B1B68BB613B69DB43BA691340BB6136
:103140003B685B6803F48033002B03D0BA693B69AA
:103150001343BB61124ABB691360FB690133FB6116
:10316000FB690F2B7FF690AE00BF00BF2437BD4632
:103170005DF8047B704700BF003802400038014012
:10318000000002400004024000080240000C02401F
:10319000001002400014024000180240001C0240CF
:1031A000003C014080B485B000AF78600B467B8066
:1031B0007B681A697B881340002B02D00123FB73C4
:1031C00001E00023FB73FB7B18461437BD465DF816
:1031D000047B704780B483B000AF78600B467B807F
:1031E00013467B707B78002B03D07A887B689A61CA
:1031F00003E07B881A047B689A6100BF0C37BD46E8
:103200005DF8047B704780B485B000AF78600B46F2
:103210007B807B685B69FB607A88FB6813401A04DB
:10322000FB68D9437B880B401A437B689A6100BFD7
:103230001437BD465DF8047B704780B584B000AF9D
:1032400078607B68002B01D1012334E07B681B6828
:103250004CF6CC421A607B681B6845F255521A60E6
:103260007B681B687A6852685A607B681B687A685A
:1032700092689A60FEF7EEFCF8600FE0FEF7EAFC59
:103280000246FB68D31A312B08D97B681B68DB68C0
:1032900003F00303002B01D003230CE07B681B68C1
:1032A000DB6803F00303002BE8D17B681B684AF658
:1032B000AA221A60002318461037BD4680BD80B48C
:1032C00083B000AF78607B681B684AF6AA221A6058
:1032D000002318460C37BD465DF8047B704700009C
:1032E00080B586B000AF78607B68002B01D10123E8
:1032F00064E27B681B6803F00103002B75D0A34BCD
:103300009B6803F00C03042B0CD0A04B9B6803F0CC
:103310000C03082B12D19D4B5B6803F48003B3F5BB
:10332000800F0BD1994B1B6803F40033002B5BD04B
:103330007B685B68002B57D101233FE27B685B68A9
:10334000B3F5803F06D1914B1B68904A43F480331C
:1033500013601DE07B685B68B3F5A02F0CD18B4B2D
:103360001B688A4A43F480231360884B1B68874A92
:1033700043F4803313600BE0844B1B68834A23F4CF
:1033800080331360814B1B68804A23F480231360D1
:103390007B685B68002B13D0FEF75CFC386108E0AB
:1033A000FEF758FC02463B69D31A642B01D903236C
:1033B00004E2764B1B6803F40033002BF0D014E0DA
:1033C000FEF748FC386108E0FEF744FC02463B6922
:1033D000D31A642B01D90323F0E16C4B1B6803F46F
:1033E0000033002BF0D100E000BF7B681B6803F0C6
:1033F0000203002B63D0654B9B6803F00C03002B8A
:103400000BD0624B9B6803F00C03082B1CD15F4B65
:103410005B6803F48003002B16D15C4B1B6803F040
:103420000203002B05D07B68DB68012B01D0012350
:10343000C4E1564B1B6823F0F8027B681B69DB0074
:10344000524913430B603AE07B68DB68002B20D0C5
:103450004F4B01221A60FEF7FDFB386108E0FEF7D2
:10346000F9FB02463B69D31A022B01D90323A5E1DC
:10347000464B1B6803F00203002BF0D0434B1B6844
:1034800023F0F8027B681B69DB00404913430B60A3
:1034900015E03F4B00221A60FEF7DCFB386108E0C4
:1034A000FEF7D8FB02463B69D31A022B01D903234E
:1034B00084E1364B1B6803F00203002BF0D17B68DC
:1034C0001B6803F00803002B30D07B685B69002B7E
:1034D00016D0304B01221A60FEF7BCFB386108E0C1
:1034E000FEF7B8FB02463B69D31A022B01D903232E
:1034F00064E1264B5B6F03F00203002BF0D015E074
:10350000244B00221A60FEF7A5FB386108E0FEF7A5
:10351000A1FB02463B69D31A022B01D903234DE1DB
:103520001A4B5B6F03F00203002BF0D17B681B6822
:1035300003F00403002B00F0A0800023FB75134B65
:103540001B6C03F08053002B0FD10023BB600F4B8B
:103550001B6C0E4A43F0805313640C4B1B6C03F03E
:103560008053BB60BB680123FB750B4B1B6803F4E6
:103570008073002B21D1084B1B68074A43F48073EA
:103580001360FEF767FB386111E000BF00380240AE
:1035900000004742800E474200700040FEF75AFB91
:1035A00002463B69D31A022B01D9032306E1854B5E
:1035B0001B6803F48073002BF0D07B689B68012BA1
:1035C00006D1814B1B6F804A43F0010313671CE057
:1035D0007B689B68052B0CD17B4B1B6F7A4A43F0B1
:1035E00004031367784B1B6F774A43F0010313679B
:1035F0000BE0754B1B6F744A23F001031367724B8A
:103600001B6F714A23F0040313677B689B68002BD0
:1036100015D0FEF71FFB38610AE0FEF71BFB0246E0
:103620003B69D31A41F28832934201D90323C5E0A2
:10363000654B1B6F03F00203002BEED014E0FEF786
:1036400009FB38610AE0FEF705FB02463B69D31A25
:1036500041F28832934201D90323AFE05A4B1B6FEA
:1036600003F00203002BEED1FB7D012B05D1564B5D
:103670001B6C554A23F0805313647B689B69002BB5
:1036800000F09B80504B9B6803F00C03082B5CD030
:103690007B689B69022B41D14C4B00221A60FEF7DC
:1036A000D9FA386108E0FEF7D5FA02463B69D31A29
:1036B000022B01D9032381E0434B1B6803F0007305
:1036C000002BF0D17B68DA697B681B6A1A437B6840
:1036D0005B6A9B011A437B689B6A5B08013B1B0486
:1036E0001A437B68DB6A1B06374913434B60374B31
:1036F00001221A60FEF7AEFA386108E0FEF7AAFA76
:1037000002463B69D31A022B01D9032356E02E4B04
:103710001B6803F00073002BF0D04EE02B4B00220F
:103720001A60FEF797FA386108E0FEF793FA02464E
:103730003B69D31A022B01D903233FE0224B1B68BC
:1037400003F00073002BF0D137E07B689B69012BFD
:1037500001D1012332E01C4B5B68FB607B689B69F5
:10376000012B28D0FB6803F480027B68DB699A4256
:1037700021D1FB6803F03F027B681B6A9A421AD191
:10378000FA6847F6C07313407A68526A920193420E
:1037900011D1FB6803F440327B689B6A5B08013BF4
:1037A0001B049A4207D1FB6803F070627B68DB6AF6
:1037B0001B069A4201D0012300E000231846183767
:1037C000BD4680BD007000400038024060004742A6
:1037D00080B584B000AF786039607B68002B01D180
:1037E0000123CCE0684B1B6803F007033A689A4258
:1037F0000CD9654B3A68D2B21A70634B1B6803F060
:1038000007033A689A4201D00123B8E07B681B683D
:1038100003F00203002B20D07B681B6803F0040335
:10382000002B05D0594B9B68584A43F4E0539360F2
:103830007B681B6803F00803002B05D0534B9B6883
:10384000524A43F460439360504B9B6823F0F0026C
:103850007B689B684D4913438B607B681B6803F052
:103860000103002B44D07B685B68012B07D1474BD9
:103870001B6803F40033002B19D101237FE07B6820
:103880005B68022B03D07B685B68032B07D13F4B3F
:103890001B6803F00073002B09D101236FE03B4B41
:1038A0001B6803F00203002B01D1012367E0374BB3
:1038B0009B6823F003027B685B68344913438B6089
:1038C000FEF7C8F9F8600AE0FEF7C4F90246FB68A3
:1038D000D31A41F28832934201D903234FE02B4B94
:1038E0009B6803F00C027B685B689B009A42EBD1FB
:1038F000254B1B6803F007033A689A420CD2224B0F
:103900003A68D2B21A70204B1B6803F007033A687A
:103910009A4201D0012332E07B681B6803F0040364
:10392000002B08D0194B9B6823F4E0527B68DB68BE
:10393000164913438B607B681B6803F00803002B58
:1039400009D0124B9B6823F460427B681B69DB0043
:103950000E4913438B6000F021F802460B4B9B6825
:103960001B0903F00F030A49CB5C22FA03F3094A4F
:103970001360094B1B681846FDF79CFF002318468F
:103980001037BD4680BD00BF003C024000380240F9
:1039900094A602080000002004000020B0B584B006
:1039A00000AF002179600021F96000213960002119
:1039B000B9605249896801F00C0108290DD0082925
:1039C00000F29480002902D0042903D08EE04C4BF1
:1039D000BB608EE04B4BBB608BE04849496801F00F
:1039E0003F0179604549496801F48001002924D0EC
:1039F00042494968890908464FF0000140F2FF1426
:103A00004FF0000500EA040201EA05033D4901FB0D
:103A100003F0002101FB02F144183A49A2FB010125
:103A2000631819467B681A464FF00003FCF728FC20
:103A300002460B461346FB604AE0304B5B689B092D
:103A40001A464FF0000340F2FF104FF0000102EA67
:103A5000000403EA0105204629464FF000024FF01A
:103A600000034B0143EAD063420110461946001B94
:103A700061EB05014FF000024FF000038B0143EAB8
:103A800090638201121A63EB01034FF000004FF0C4
:103A90000001D90041EA5271D00002460B461219CA
:103AA00045EB03034FF000004FF00001990241EA9B
:103AB0009251900202460B46104619467B681A4600
:103AC0004FF00003FCF7DCFB02460B461346FB609D
:103AD0000A4B5B681B0C03F0030301335B003B6084
:103AE000FA683B68B2FBF3F3BB6002E0044BBB60D7
:103AF00000BFBB6818461037BD46B0BD0038024055
:103B00000024F40040787D0180B400AF034B1B68B3
:103B10001846BD465DF8047B704700BF00000020DA
:103B200080B500AFFFF7F0FF0246054B9B689B0A8C
:103B300003F007030349CB5C22FA03F3184680BD68
:103B400000380240A4A6020880B500AFFFF7DCFFF2
:103B50000246054B9B685B0B03F007030349CB5CF4
:103B600022FA03F3184680BD00380240A4A60208DA
:103B700080B483B000AF786039607B680F221A6030
:103B8000124B9B6803F003027B685A600F4B9B68E3
:103B900003F0F0027B689A600C4B9B6803F4E052E0
:103BA0007B68DA60094B9B68DB0803F4E0527B68B2
:103BB0001A61074B1B6803F007023B681A6000BFDD
:103BC0000C37BD465DF8047B704700BF00380240EB
:103BD000003C024080B586B000AF786000237B6176
:103BE00000233B617B681B6803F00103002B05D1B8
:103BF0007B681B6803F00403002B35D0624B002266
:103C00001A60FEF727F8786108E0FEF723F802460D
:103C10007B69D31A022B01D90323B0E05B4B1B68ED
:103C200003F00063002BF0D17B685B689A017B682E
:103C30009B681B0755491343C1F88430524B01223E
:103C40001A60FEF707F8786108E0FEF703F802460D
:103C50007B69D31A022B01D9032390E04B4B1B68DD
:103C600003F00063002BF0D07B681B6803F00203B5
:103C7000002B00F083800023FB60444B1B6C434A05
:103C800043F080531364414B1B6C03F08053FB6083
:103C9000FB683F4B1B683E4A43F480731360FDF79B
:103CA000D9FF786108E0FDF7D5FF02467B69D31A9A
:103CB000022B01D9032362E0354B1B6803F48073A8
:103CC000002BF0D0314B1B6F03F440733B613B6919
:103CD000002B2FD07B68DB6803F440733A699A426B
:103CE00028D02A4B1B6F23F440733B61294B0122E0
:103CF0001A60284B00221A60244A3B691367234B41
:103D00001B6F03F00103012B14D1FDF7A3FF7861B2
:103D10000AE0FDF79FFF02467B69D31A41F2883221
:103D2000934201D903232AE0184B1B6F03F00203CF
:103D3000002BEED07B68DB6803F44073B3F5407F63
:103D40000DD1124B9B6823F4F8127B68DB6823F0DB
:103D5000704323F440730D4913438B6005E00B4B14
:103D60009B680A4A23F4F8139360084B1A6F7B6828
:103D7000DB68C3F30B03054913430B6700231846A5
:103D80001837BD4680BD00BF68004742003802407A
:103D900000700040400E474280B584B000AF7860AC
:103DA0000123FB737B68002B01D1012366E07B6854
:103DB0005B7FDBB2002B05D17B6800221A77786825
:103DC000FDF776FB7B6802225A777B681B68CA2264
:103DD0005A627B681B6853225A62786800F045FA81
:103DE0000346FB73FB7B002B2CD17B681B689B6815
:103DF0007A68126823F4E00323F0400393607B6841
:103E00001B6899687B685A687B681B691A437B68E2
:103E10005B691A437B681B680A439A607B681B686E
:103E20007A68D2681A617B681B6819697B689B682D
:103E30001A047B681B680A431A61786800F04CFA20
:103E40000346FB73FB7B002B13D17B681B681A6C4A
:103E50007B681B6822F480221A647B681B68196CDB
:103E60007B689A697B681B680A431A647B68012235
:103E70005A777B681B68FF225A62FB7B1846103713
:103E8000BD4680BD90B587B000AFF860B9607A607C
:103E900000237B61FB681B7F012B01D1022387E09C
:103EA000FB6801221A77FB6802225A777B68002B95
:103EB00026D1FB681B689B6803F04003002B02D1EE
:103EC000BB680022DA70BB681B78184600F029FA3C
:103ED00003461C04BB685B78184600F022FA0346D0
:103EE0001B021C43BB689B78184600F01AFA034675
:103EF00044EA0302BB68DB789B0513437B6118E04F
:103F0000FB681B689B6803F04003002B02D1BB6871
:103F10000022DA70BB681B781A04BB685B781B024E
:103F20001343BA6892781A43BB68DB789B05134346
:103F30007B61FB681B68CA225A62FB681B685322BC
:103F40005A62F86800F091F90346FB74FB7C002B81
:103F500020D1FB681A687B6903F07F3323F0FE43AE
:103F60001360FB681B689A68FB681B6822F4802258
:103F70009A60FB681B689968BB68DA68BB681B6954
:103F80001A43FB681B680A439A60F86800F0A4F9BA
:103F90000346FB74FB7C002B02D1FB6801225A779D
:103FA000FB681B68FF225A62FB6800221A77FB7CC1
:103FB00018461C37BD4690BD80B586B000AFF8608E
:103FC000B9607A6000237B61FB681B689A6ABB68F2
:103FD0005A60FB681B681B69C3F30E02BB689A60DA
:103FE000FB681B681B6803F07F3323F0FE437B6193
:103FF0007B691B0CDBB203F03F03DAB2BB681A70BB
:104000007B691B0ADBB203F07F03DAB2BB685A702C
:104010007B69DBB203F07F03DAB2BB689A707B691D
:104020009B0DDBB203F00103DAB2BB68DA707B6888
:10403000002B1AD1BB681B78184600F08FF9034695
:104040001A46BB681A70BB685B78184600F086F9A0
:1040500003461A46BB685A70BB689B78184600F046
:104060007DF903461A46BB689A7000231846183734
:10407000BD4680BD90B587B000AFF860B9607A608A
:1040800000237B61FB681B7F012B01D1022371E0C0
:10409000FB6801221A77FB6802225A777B68002BA3
:1040A0000ED1BB685B7803F01003002B08D0BB680F
:1040B0005B7823F01003DBB20A33DAB2BB685A70C4
:1040C0007B68002B1CD1BB68DB78184600F029F90F
:1040D00003461C04BB685B78184600F022F90346CF
:1040E0001B021C43BB689B78184600F01AF9034674
:1040F00044EA0302BB681B785B0313437B610EE059
:10410000BB68DB781A04BB685B781B021343BA6890
:1041100092781A43BB681B785B0313437B61FB688F
:104120001B68CA225A62FB681B6853225A62F868ED
:1041300000F09BF80346FB74FB7C002B0CD1FB6862
:104140001A687B6923F07F4323F0C0035360F8684B
:1041500000F0C2F80346FB74FB7C002B02D1FB6825
:1041600001225A77FB681B68FF225A62FB68002213
:104170001A77FB7C18461C37BD4690BD80B586B0CB
:1041800000AFF860B9607A6000237B61FB681B6850
:104190005B6823F07F4323F0C0037B617B691B0CCA
:1041A000DAB2BB68DA707B691B0ADBB203F01F036B
:1041B000DAB2BB685A707B69DBB203F03F03DAB254
:1041C000BB689A707B695B0BDBB203F00703DAB262
:1041D000BB681A707B68002B1AD1BB68DB78184665
:1041E00000F0BCF803461A46BB68DA70BB685B781F
:1041F000184600F0B3F803461A46BB685A70BB680D
:104200009B78184600F0AAF803461A46BB689A70D5
:10421000002318461837BD4680BD80B584B000AF76
:1042200078600023FB607B681B68DA687B681B682A
:1042300022F0A002DA60FDF70DFDF86009E0FDF75D
:1042400009FD0246FB68D31AB3F57A7F01D903232F
:1042500007E07B681B68DB6803F02003002BEED0CF
:10426000002318461037BD4680BD80B584B000AF2E
:1042700078600023BB600023FB737B681B68DB68EE
:1042800003F04003002B22D17B681B68DA687B684F
:104290001B6842F08002DA60FDF7DCFCB8600CE0DD
:1042A000FDF7D8FC0246BB68D31AB3F57A7F04D970
:1042B0007B6804225A770123FB737B681B68DB68E9
:1042C00003F04003002B02D1FB7B012BE8D1FB7BE9
:1042D00018461037BD4680BD80B584B000AF786009
:1042E0000023FB737B681B68DA687B681B6822F01D
:1042F0008002DA607B681B689B6803F02003002B58
:104300000AD17868FFF789FF0346002B04D07B6849
:1043100004225A770123FB73FB7B18461037BD46F6
:1043200080BD80B485B000AF0346FB710023FB73F2
:1043300005E0FB7B0133FB73FB790A3BFB71FB79E7
:10434000092BF6D8FB7B1B01DAB2FB791343DBB2F6
:1043500018461437BD465DF8047B704780B485B0BD
:1043600000AF0346FB710023FB73FB791B09DBB233
:104370001A46920013445B00FB73FB7903F00F03B2
:10438000DAB2FB7B1344DBB218461437BD465DF846
:10439000047B704780B582B000AF78607B68002BEB
:1043A00001D101237BE07B685B6A002B08D17B682D
:1043B0005B68B3F5827F09D07B680022DA6105E093
:1043C0007B6800221A617B6800225A617B680022A8
:1043D0009A627B6893F85130DBB2002B06D17B6880
:1043E000002283F850207868FDF78CF87B68022261
:1043F00083F851207B681B681A687B681B6822F071
:1044000040021A607B685B6803F482727B689B6879
:1044100003F404431A437B68DB6803F400631A4324
:104420007B681B6903F002031A437B685B6903F036
:1044300001031A437B689B6903F400731A437B688A
:10444000DB6903F038031A437B681B6A03F08003BF
:1044500042EA03017B689B6A03F400527B681B6895
:104460000A431A607B689B691B0C03F004017B689C
:104470005B6A03F010027B681B680A435A607B6822
:104480001B68DA697B681B6822F40062DA617B686A
:1044900000225A657B68012283F8512000231846C8
:1044A0000837BD4680BD80B588B000AFF860B96000
:1044B0003B601346FB800023FB77FB6893F850308A
:1044C000012B01D1022326E1FB68012283F8502051
:1044D000FDF7C0FBB861FB88FB82FB6893F85130A5
:1044E000DBB2012B02D00223FB770BE1BB68002B70
:1044F00002D0FB88002B02D10123FB7702E1FB688D
:10450000032283F85120FB6800225A65FB68BA68D1
:104510001A63FB68FA889A86FB68FA88DA86FB6871
:1045200000229A63FB6800229A87FB680022DA87E0
:10453000FB6800225A64FB6800221A64FB689B68CF
:10454000B3F5004F0FD1FB681B681A68FB681B6846
:1045500022F040021A60FB681B681A68FB681B683F
:1045600042F480421A60FB681B681B6803F040033A
:10457000402B07D0FB681B681A68FB681B6842F079
:1045800040021A60FB68DB68B3F5006F4BD1FB6833
:104590005B68002B02D0FB8A012B3ED1FB681B6BB2
:1045A0001A88FB681B68DA60FB681B6B9A1CFB6847
:1045B0001A63FB68DB8E9BB2013B9AB2FB68DA861A
:1045C0002BE0FB681B689B6803F00203022B12D1EF
:1045D000FB681B6B1A88FB681B68DA60FB681B6B47
:1045E0009A1CFB681A63FB68DB8E9BB2013B9AB294
:1045F000FB68DA8611E0FDF72DFB0246BB69D31A92
:104600003A689A4203D83B68B3F1FF3F02D13B6856
:10461000002B02D10323FB7774E0FB68DB8E9BB297
:10462000002BCED14CE0FB685B68002B02D0FB8AEC
:10463000012B40D1FB681A6BFB681B680C331278A6
:104640001A70FB681B6B5A1CFB681A63FB68DB8ED5
:104650009BB2013B9AB2FB68DA862CE0FB681B68D0
:104660009B6803F00203022B13D1FB681A6BFB68F3
:104670001B680C3312781A70FB681B6B5A1CFB68A2
:104680001A63FB68DB8E9BB2013B9AB2FB68DA8649
:1046900011E0FDF7DFFA0246BB69D31A3A689A4285
:1046A00003D83B68B3F1FF3F02D13B68002B02D136
:1046B0000323FB7726E0FB68DB8E9BB2002BCDD17A
:1046C000BA693968F86800F0CBFB0346002B02D0CA
:1046D000FB6820225A65FB689B68002B0AD10023E7
:1046E0003B61FB681B68DB683B61FB681B689B6880
:1046F0003B613B69FB685B6D002B02D00123FB77BC
:1047000000E000BFFB68012283F85120FB68002213
:1047100083F85020FB7F18462037BD4680BD80B50A
:1047200088B002AFF860B9603B601346FB8000239D
:10473000FB75FB685B68B3F5827F12D1FB689B68F1
:10474000002B0ED1FB68042283F85120FA883B68C5
:1047500000931346BA68B968F86800F0F1F80346A8
:10476000EAE0FB6893F85030012B01D10223E3E02B
:10477000FB68012283F85020FDF76CFA3861FB6872
:1047800093F85130DBB2012B02D00223FB75CAE053
:10479000BB68002B02D0FB88002B02D10123FB75E4
:1047A000C1E0FB68042283F85120FB6800225A65AF
:1047B000FB68BA689A63FB68FA889A87FB68FA888C
:1047C000DA87FB6800221A63FB6800229A86FB687E
:1047D0000022DA86FB6800221A64FB6800225A6411
:1047E000FB689B68B3F5004F0FD1FB681B681A6824
:1047F000FB681B6822F040021A60FB681B681A689D
:10480000FB681B6822F480421A60FB681B681B6807
:1048100003F04003402B07D0FB681B681A68FB6855
:104820001B6842F040021A60FB68DB68002B62D113
:104830002EE0FB681B689B6803F00103012B15D178
:10484000FB681B6803F10C02FB689B6B1278D2B209
:104850001A70FB689B6B5A1CFB689A63FB68DB8FC2
:104860009BB2013B9AB2FB68DA8711E0FDF7F2F9DF
:1048700002463B69D31A3A689A4203D83B68B3F1BF
:10488000FF3F02D13B68002B02D10323FB754AE0B6
:10489000FB68DB8F9BB2002BCBD131E0FB681B6840
:1048A0009B6803F00103012B13D1FB681B68DA68D6
:1048B000FB689B6B92B21A80FB689B6B9A1CFB682F
:1048C0009A63FB68DB8F9BB2013B9AB2FB68DA8785
:1048D00011E0FDF7BFF902463B69D31A3A689A42E4
:1048E00003D83B68B3F1FF3F02D13B68002B02D1F4
:1048F0000323FB7517E0FB68DB8F9BB2002BCDD148
:104900003A693968F86800F045FA0346002B02D08E
:10491000FB6820225A65FB685B6D002B02D00123E7
:10492000FB7500E000BFFB68012283F85120FB68A3
:10493000002283F85020FB7D18461837BD4680BD05
:1049400080B58CB000AFF860B9607A607B800123DD
:10495000FB62002387F82B30FB6893F85030012B63
:1049600001D102238AE1FB68012283F85020FDF780
:1049700071F97862FB6893F8513087F82330FB684F
:104980005B68FB617B887B8397F82330012B0FD01A
:10499000FB69B3F5827F07D1FB689B68002B03D1CD
:1049A00097F82330042B03D0022387F82B305BE1E8
:1049B000BB68002B05D07B68002B02D07B88002BC6
:1049C00003D1012387F82B304EE1FB6893F8513077
:1049D000DBB2042B03D0FB68052283F85120FB686F
:1049E00000225A65FB687A689A63FB687A88DA87DE
:1049F000FB687A889A87FB68BA681A63FB687A88CA
:104A0000DA86FB687A889A86FB6800221A64FB685B
:104A100000225A64FB681B681B6803F04003402BAC
:104A200007D0FB681B681A68FB681B6842F04002ED
:104A30001A60FB68DB68B3F5006F78D1FB685B68D0
:104A4000002B02D07B8B012B66D1FB681B6B1A8875
:104A5000FB681B68DA60FB681B6B9A1CFB681A63B7
:104A6000FB68DB8E9BB2013B9AB2FB68DA8653E0AF
:104A7000FB681B689B6803F00203022B1BD1FB68D9
:104A8000DB8E9BB2002B16D0FB6A012B13D1FB6887
:104A90001B6B1A88FB681B68DA60FB681B6B9A1C2F
:104AA000FB681A63FB68DB8E9BB2013B9AB2FB6822
:104AB000DA860023FB62FB681B689B6803F0010336
:104AC000012B19D1FB68DB8F9BB2002B14D0FB6844
:104AD0001B68DA68FB689B6B92B21A80FB689B6B61
:104AE0009A1CFB689A63FB68DB8F9BB2013B9AB20E
:104AF000FB68DA870123FB62FDF7ACF802467B6AAC
:104B0000D31ABA6B9A4207D8BB6BB3F1FF3F03D0FD
:104B1000032387F82B30A7E0FB68DB8E9BB2002BCA
:104B2000A6D1FB68DB8F9BB2002BA1D17CE0FB6898
:104B30005B68002B02D07B8B012B6BD1FB681A6B5F
:104B4000FB681B680C3312781A70FB681B6B5A1CCD
:104B5000FB681A63FB68DB8E9BB2013B9AB2FB6871
:104B6000DA8657E0FB681B689B6803F00203022BA0
:104B70001CD1FB68DB8E9BB2002B17D0FB6A012B8C
:104B800014D1FB681A6BFB681B680C3312781A701F
:104B9000FB681B6B5A1CFB681A63FB68DB8E9BB2BD
:104BA000013B9AB2FB68DA860023FB62FB681B6854
:104BB0009B6803F00103012B19D1FB68DB8F9BB2CB
:104BC000002B14D0FB681B68DA68FB689B6BD2B2C1
:104BD0001A70FB689B6B5A1CFB689A63FB68DB8F3F
:104BE0009BB2013B9AB2FB68DA870123FB62FDF7B7
:104BF00031F802467B6AD31ABA6B9A4203D8BB6B70
:104C0000B3F1FF3F02D1BB6B002B03D1032387F825
:104C10002B3029E0FB68DB8E9BB2002BA2D1FB6816
:104C2000DB8F9BB2002B9DD17A6AB96BF86800F0DC
:104C300017F90346002B06D0012387F82B30FB68B9
:104C400020225A6510E0FB689B68002B0BD10023E3
:104C50007B61FB681B68DB687B61FB681B689B688A
:104C60007B617B6900E000BFFB68012283F8512073
:104C7000FB68002283F8502097F82B301846303715
:104C8000BD4680BD80B588B000AFF860B9603B60BC
:104C90001346FB71FCF7DEFF0246BB6A9B1A3A68BB
:104CA0001344FB61FCF7D6FFB861394B1B685B010D
:104CB0001B0DFA6902FB03F37B6154E03B68B3F11F
:104CC000FF3F50D0FCF7C6FF0246BB69D31AFA6912
:104CD0009A4202D9FB69002B3DD1FB681B685A68D8
:104CE000FB681B6822F0E0025A60FB685B68B3F562
:104CF000827F11D1FB689B68B3F5004F04D0FB683D
:104D00009B68B3F5806F07D1FB681B681A68FB6866
:104D10001B6822F040021A60FB689B6AB3F5005FD3
:104D20000FD1FB681B681A68FB681B6822F40052ED
:104D30001A60FB681B681A68FB681B6842F4005223
:104D40001A60FB68012283F85120FB68002283F877
:104D50005020032317E07B69002B01D10023FB6166
:104D60007B69013B7B61FB681B689A68BB681340E9
:104D7000BA689A420CBF01230023DBB21A46FB79C2
:104D80009A429BD1002318462037BD4680BD00BF04
:104D90000000002080B586B002AFF860B9607A608C
:104DA000FB685B68B3F5827F11D1FB689B68B3F544
:104DB000004F04D0FB689B68B3F5806F07D1FB6898
:104DC0001B681A68FB681B6822F040021A60FB68C7
:104DD0005B68B3F5827F2AD1FB689B68B3F5806F6F
:104DE00012D07B680093BB6800228021F868FFF72F
:104DF00049FF0346002B2DD0FB685B6D43F020027A
:104E0000FB685A65032326E07B680093BB68002299
:104E10000121F868FFF736FF0346002B1AD0FB6824
:104E20005B6D43F02002FB685A65032313E07B6847
:104E30000093BB6800220121F868FFF723FF0346B7
:104E4000002B07D0FB685B6D43F02002FB685A65BE
:104E5000032300E0002318461037BD4680BD000044
:104E600080B588B002AFF860B9607A601B4B1B68F0
:104E70001B4AA2FB03235B0D4FF47A7202FB03F380
:104E80007B61FB685B68B3F5827F12D17B6800931E
:104E9000BB6800228021F868FFF7F4FE0346002B70
:104EA00016D0FB685B6D43F02002FB685A65032354
:104EB0000FE07B69002B0AD07B69013B7B61FB68BB
:104EC0001B689B6803F08003802BF2D000E000BFDA
:104ED000002318461837BD4680BD00BF00000020E3
:104EE000819F5E1680B582B000AF78607B68002B32
:104EF00001D1012341E07B6893F83D30DBB2002B08
:104F000006D17B68002283F83C20786800F039F8ED
:104F10007B68022283F83D207B681A687B68043333
:104F20001946104600F0D8F97B68012283F8462024
:104F30007B68012283F83E207B68012283F83F20B2
:104F40007B68012283F840207B68012283F841209E
:104F50007B68012283F842207B68012283F843208A
:104F60007B68012283F844207B68012283F8452076
:104F70007B68012283F83D20002318460837BD4690
:104F800080BD80B483B000AF786000BF0C37BD46F1
:104F90005DF8047B7047000080B485B000AF786096
:104FA0007B6893F83D30DBB2012B01D001234EE04A
:104FB0007B68022283F83D207B681B68DA687B6887
:104FC0001B6842F00102DA607B681B68234A934247
:104FD00022D07B681B68B3F1804F1DD07B681B68B3
:104FE0001F4A934218D07B681B681E4A934213D015
:104FF0007B681B681C4A93420ED07B681B681B4A67
:10500000934209D07B681B68194A934204D07B689D
:105010001B68184A934211D17B681B689B6803F098
:105020000703FB60FB68062B10D07B681B681A68BF
:105030007B681B6842F001021A6007E07B681B680E
:105040001A687B681B6842F001021A600023184648
:105050001437BD465DF8047B704700BF0000014077
:105060000004004000080040000C00400004014023
:10507000004001400018004080B582B000AF786069
:105080007B681B681B6903F00203022B22D17B683B
:105090001B68DB6803F00203022B1BD17B681B68D3
:1050A0006FF002021A617B6801221A777B681B6825
:1050B0009B6903F00303002B03D0786800F0EEF83F
:1050C00005E0786800F0E0F8786800F0F1F87B68B7
:1050D00000221A777B681B681B6903F00403042B0A
:1050E00022D17B681B68DB6803F00403042B1BD10F
:1050F0007B681B686FF004021A617B6802221A77D2
:105100007B681B689B6903F44073002B03D07868AD
:1051100000F0C4F805E0786800F0B6F8786800F0B0
:10512000C7F87B6800221A777B681B681B6903F04D
:105130000803082B22D17B681B68DB6803F0080397
:10514000082B1BD17B681B686FF008021A617B6813
:1051500004221A777B681B68DB6903F00303002BCA
:1051600003D0786800F09AF805E0786800F08CF8D1
:10517000786800F09DF87B6800221A777B681B68CE
:105180001B6903F01003102B22D17B681B68DB68BE
:1051900003F01003102B1BD17B681B686FF010020B
:1051A0001A617B6808221A777B681B68DB6903F445
:1051B0004073002B03D0786800F070F805E0786841
:1051C00000F062F8786800F073F87B6800221A77C4
:1051D0007B681B681B6903F00103012B0ED17B6800
:1051E0001B68DB6803F00103012B07D17B681B6898
:1051F0006FF001021A617868FCF7D4F87B681B68CD
:105200001B6903F08003802B0ED17B681B68DB6871
:1052100003F08003802B07D17B681B686FF080024E
:105220001A61786800F002F97B681B681B6903F05B
:105230004003402B0ED17B681B68DB6803F0400302
:10524000402B07D17B681B686FF040021A617868B9
:1052500000F038F87B681B681B6903F02003202BE3
:105260000ED17B681B68DB6803F02003202B07D17D
:105270007B681B686FF020021A61786800F0CCF838
:1052800000BF0837BD4680BD80B483B000AF7860F2
:1052900000BF0C37BD465DF8047B704780B483B017
:1052A00000AF786000BF0C37BD465DF8047B7047E7
:1052B00080B483B000AF786000BF0C37BD465DF8A6
:1052C000047B704780B483B000AF786000BF0C37B8
:1052D000BD465DF8047B704780B485B000AF786050
:1052E00039607B681B68FB607B68404A934213D03F
:1052F0007B68B3F1804F0FD07B683D4A93420BD05F
:105300007B683C4A934207D07B683B4A934203D078
:105310007B683A4A934208D1FB6823F07003FB6034
:105320003B685B68FA681343FB607B682F4A9342D3
:105330002BD07B68B3F1804F27D07B682C4A9342F7
:1053400023D07B682B4A93421FD07B682A4A934222
:105350001BD07B68294A934217D07B68284A934226
:1053600013D07B68274A93420FD07B68264A93422A
:105370000BD07B68254A934207D07B68244A93422E
:1053800003D07B68234A934208D1FB6823F440731F
:10539000FB603B68DB68FA681343FB60FB6823F043
:1053A00080023B685B691343FB607B68FA681A60A4
:1053B0003B689A687B68DA623B681A687B689A6225
:1053C0007B680A4A934203D07B680C4A934203D11C
:1053D0003B681A697B681A637B6801225A6100BFC7
:1053E0001437BD465DF8047B704700BF00000140E4
:1053F0000004004000080040000C00400004014090
:1054000000400140004401400048014000180040B5
:10541000001C00400020004080B483B000AF7860E2
:1054200000BF0C37BD465DF8047B704780B483B085
:1054300000AF786000BF0C37BD465DF8047B704755
:1054400080B582B000AF78607B68002B01D101236A
:105450003FE07B6893F83D30DBB2002B06D17B68E0
:10546000002283F83C207868FCF794F87B682422BB
:1054700083F83D207B681B68DA687B681B6822F430
:105480000052DA60786801F0E5F87B681B681A69F9
:105490007B681B6822F490421A617B681B685A691A
:1054A0007B681B6822F02A025A617B681B68DA68F5
:1054B0007B681B6842F40052DA607B6800221A6441
:1054C0007B68202283F83D207B68202283F83E20E1
:1054D000002318460837BD4680BD80B58AB002AFAC
:1054E000F860B9603B601346FB8000237B61FB687A
:1054F00093F83D30DBB2202B7CD1BB68002B02D06F
:10550000FB88002B01D1012375E0FB6893F83C3048
:10551000012B01D102236EE0FB68012283F83C20BD
:10552000FB6800221A64FB68212283F83D20FCF707
:1055300091FB7861FB68FA889A84FB68FA88DA84C0
:10554000FB689B68B3F5805F08D1FB681B69002B83
:1055500004D10023FB61BB68BB6103E0BB68FB6156
:105560000023BB61FB68002283F83C202AE03B68F3
:1055700000937B6900228021F86800F09CFD0346BF
:10558000002B01D0032336E0FB69002B0BD1BB6954
:105590001B881A46FB681B68C2F308025A60BB6985
:1055A0000233BB6107E0FB691A78FB681B685A602D
:1055B000FB690133FB61FB68DB8C9BB2013B9AB258
:1055C000FB68DA84FB68DB8C9BB2002BCFD13B6895
:1055D00000937B6900224021F86800F06CFD0346CF
:1055E000002B01D0032306E0FB68202283F83D2036
:1055F000002300E0022318462037BD4680BD80B559
:105600008AB002AFF860B9603B601346FB800023AC
:105610007B61FB6893F83E30DBB2202B40F08C803E
:10562000BB68002B02D0FB88002B01D1012384E052
:10563000FB6893F83C30012B01D102237DE0FB682D
:10564000012283F83C20FB6800221A64FB682222B6
:1056500083F83E20FB6800221A63FCF7FBFA7861AE
:10566000FB68FA889A85FB68FA88DA85FB689B688C
:10567000B3F5805F08D1FB681B69002B04D10023C0
:10568000FB61BB68BB6103E0BB68FB610023BB61DE
:10569000FB68002283F83C2043E03B6800937B6971
:1056A00000222021F86800F006FD0346002B01D0FF
:1056B000032342E0FB69002B0CD1FB681B685B688D
:1056C0009BB2C3F308039AB2BB691A80BB69023369
:1056D000BB611FE0FB689B68B3F5805F07D0FB6888
:1056E0009B68002B0AD1FB681B69002B06D1FB6865
:1056F0001B685B68DAB2FB691A7008E0FB681B681C
:105700005B68DBB203F07F03DAB2FB691A70FB69F6
:105710000133FB61FB68DB8D9BB2013B9AB2FB68F6
:10572000DA85FB68DB8D9BB2002BB6D1FB682022AB
:1057300083F83E20002300E0022318462037BD46B0
:1057400080BD000080B58CB000AFF860B960134632
:10575000FB80FB6893F83D30DBB2202B65D1BB6842
:10576000002B02D0FB88002B01D101235EE0FB68F7
:1057700093F83C30012B01D1022357E0FB68012252
:1057800083F83C20BA68FB681A62FB68FA889A843E
:10579000FB68FA88DA84FB6800221A64FB6821221D
:1057A00083F83D20FB685B6B224ADA63FB685B6B26
:1057B000214A1A64FB685B6B204ADA64FB685B6B06
:1057C00000221A6507F10803FB62FB68586BFB6A4D
:1057D0001968FB681B6804331A46FB88FCF7F2FF64
:1057E000FB681B686FF040021A60FB68002283F8B8
:1057F0003C20FB681B681433BB61BB6953E8003F66
:105800007B617B6943F08003BB62FB681B681433D8
:10581000BA6A7A623B62396A7A6A41E80023FB61BC
:10582000FB69002BE5D1002300E002231846303746
:10583000BD4680BD115E0108AB5E01082360010812
:1058400080B584B000AFF860B9601346FB80FB6898
:1058500093F83E30DBB2202B1DD1BB68002B02D069
:10586000FB88002B01D1012316E0FB6893F83C3044
:10587000012B01D102230FE0FB68012283F83C20B9
:10588000FB6800221A63FB881A46B968F86800F0C2
:1058900081FC034600E0022318461037BD4680BD58
:1058A00080B5BAB000AF78607B681B681B68C7F82A
:1058B000E4307B681B68DB68C7F8E0307B681B68F6
:1058C0005B69C7F8DC300023C7F8D8300023C7F87D
:1058D000D430D7F8E43003F00F03C7F8D830D7F846
:1058E000D830002B0FD1D7F8E43003F02003002B81
:1058F00009D0D7F8E03003F02003002B03D07868FC
:1059000000F0EDFD56E2D7F8D830002B00F0DE8035
:10591000D7F8DC3003F00103002B06D1D7F8E030D4
:1059200003F49073002B00F0D180D7F8E43003F03B
:105930000103002B0BD0D7F8E03003F48073002B69
:1059400005D07B681B6C43F001027B681A64D7F8B2
:10595000E43003F00403002B0BD0D7F8DC3003F065
:105960000103002B05D07B681B6C43F002027B68AF
:105970001A64D7F8E43003F00203002B0BD0D7F8F9
:10598000DC3003F00103002B05D07B681B6C43F077
:1059900004027B681A64D7F8E43003F00803002B94
:1059A00011D0D7F8E03003F02003002B05D1D7F851
:1059B000DC3003F00103002B05D07B681B6C43F047
:1059C00008027B681A647B681B6C002B00F0ED8179
:1059D000D7F8E43003F02003002B08D0D7F8E030EC
:1059E00003F02003002B02D0786800F078FD7B687C
:1059F0001B685B6903F04003402B0CBF01230023AD
:105A0000DBB2C7F8D4307B681B6C03F00803002BB3
:105A100003D1D7F8D430002B4FD0786800F080FC49
:105A20007B681B685B6903F04003402B41D17B68B6
:105A30001B681433C7F89C30D7F89C3053E8003FFC
:105A4000C7F89830D7F8983023F04003C7F8D03023
:105A50007B681B681433D7F8D020C7F8A820C7F894
:105A6000A430D7F8A410D7F8A82041E80023C7F83D
:105A7000A030D7F8A030002BD9D17B689B6B002BCE
:105A800013D07B689B6B7D4A1A657B689B6B1846BD
:105A9000FCF760FF0346002B16D07B689B6B1B6DE9
:105AA0007A68926B104698470EE0786800F09AF991
:105AB0000AE0786800F096F906E0786800F092F95C
:105AC0007B6800221A6470E100BF6EE17B681B6B8B
:105AD000012B40F04A81D7F8E43003F01003002B8B
